:020000040800F2
:10000000F80A0020CD010008D5010008D70100083A
:10001000D9010008DB010008DD0100080000000034
:10002000000000000000000000000000DF010008E8
:10003000E101000800000000E3010008E5010008FC
:10004000E7010008E7010008E7010008E7010008F0
:10005000E7010008E7010008E7010008E7010008E0
:10006000E7010008E7010008E7010008E7010008D0
:10007000E7010008E7010008E7010008E7010008C0
:10008000E7010008E7010008E7010008E7010008B0
:10009000E7010008E7010008E7010008E7010008A0
:1000A000E7010008E7010008E7010008E701000890
:1000B000D9150008E7010008E7010008E70100087A
:1000C000E7010008E7010008E7010008E701000870
:1000D000E7010008E701000869160008E7010008C9
:1000E000E7010008E7010008E7010008E701000850
:1000F000E7010008E7010008E7010008E701000840
:10010000E7010008E7010008E7010008E70100082F
:10011000E7010008E7010008E7010008E70100081F
:10012000E7010008E7010008E7010008E70100080F
:1001300000F002F800F03AF80AA090E8000C8244BF
:100140008344AAF10107DA4501D100F02FF8AFF29C
:10015000090EBAE80F0013F0010F18BFFB1A43F0A5
:1001600001031847141A0000341A0000103A24BF83
:1001700078C878C1FAD8520724BF30C830C144BF0C
:1001800004680C607047000000230024002500264E
:10019000103A28BF78C1FBD8520728BF30C148BFEA
:1001A0000B6070471FB51FBD10B510BD00F031F8D2
:1001B0001146FFF7F7FF01F0C3FC00F04FF803B45E
:1001C000FFF7F2FF03BC00F057F800000948804732
:1001D00009480047FEE7FEE7FEE7FEE7FEE7FEE729
:1001E000FEE7FEE7FEE7FEE704480549054A064B41
:1001F000704700006D15000831010008F804002068
:10020000F80A0020F8060020F80600207047704722
:100210007047754600F02CF8AE4605006946534617
:1002200020F00700854618B020B5FFF7DDFFBDE8D8
:1002300020404FF000064FF000074FF000084FF04D
:10024000000B21F00701AC46ACE8C009ACE8C009DE
:10025000ACE8C009ACE8C0098D46704710B504464B
:10026000AFF300802046BDE81040FFF7A8BF0000B4
:10027000004870479804002001491820ABBEFEE7F3
:100280002600020070472DE9F041074688461546D2
:100290000421052000F02DF80021012001F0C2FB0F
:1002A00080210A2001F0B0F8002405E0395D092022
:1002B00001F0B8FB601CC4B24445F7DB0321012008
:1002C00001F0B0FBFF2400BF052000F0BBFF064695
:1002D000601EC4B21CB106F004000028F4D0222035
:1002E00000F0B0FF2870212000F0ACFF6870BDE87E
:1002F000F08170B505460C460026284600F0A2FFA6
:10030000064626EA0401284601F08CFB70BD21B1A7
:10031000026842F00102026004E002684FF6FE73D8
:100320001A4002607047000001684FF6FE721140EB
:1003300001600021016041608160C1604B498842D9
:1003400008D14A490839496841F00F01474A083A3B
:1003500051608AE045491431884208D1434908393F
:10036000496841F0F001414A083A51607DE03F4957
:100370002831884208D13D490839496841F4706103
:100380003A4A083A516070E038493C31884208D115
:1003900036490839496841F47041344A083A516095
:1003A00063E032495031884208D130490839496800
:1003B00041F470212D4A083A516056E02B496431CE
:1003C000884208D129490839496841F47001274A0F
:1003D000083A516049E025497831884208D12349DB
:1003E0000839496841F07061204A083A51603CE0A0
:1003F0001F49884206D1011F096841F00F01021F01
:10040000116032E01A491431884208D11849091F95
:10041000096841F0F001164A121F116025E01449E5
:100420002831884208D11249091F096841F47061D6
:100430000F4A121F116018E00D493C31884208D163
:100440000B49091F096841F47041094A121F1160E4
:100450000BE007495031884207D10549091F096857
:1004600041F47021024A121F1160704708000240D7
:10047000080402400146486880B270471AB1036818
:100480000B43036002E003688B430360704710B5C1
:100490000022026847F6F0739A430C6A8B68234384
:1004A0000C6923434C6923438C692343CC69234360
:1004B0004C6A23438C6A23431A430260CB6843602F
:1004C0000B6883604B68C36010BD416070472DE9C5
:1004D000F0410246002500260020002300240027CA
:1004E00091F803C00CF00F0591F803C00CF0100C4C
:1004F000BCF1000F03D091F802C04CEA050591F859
:1005000000C0BCF1000F31D0146800202BE04FF088
:10051000010C0CFA00F3B1F800C00CEA03069E428D
:1005200020D183004FF00F0C0CFA03F7BC4305FAFF
:1005300003FC4CEA040491F803C0BCF1280F06D177
:100540004FF0010C0CFA00FCC2F814C00AE091F85C
:1005500003C0BCF1480F05D14FF0010C0CFA00FCB0
:10056000C2F810C0401C0828D1D31460B1F800C0F4
:10057000BCF1FF0F34DD546800202EE000F1080CC0
:100580004FF0010808FA0CF3B1F800C00CEA0306BA
:100590009E4221D183004FF00F0C0CFA03F7BC43AD
:1005A00005FA03FC4CEA040491F803C0BCF1280FDF
:1005B00005D100F1080C08FA0CF8C2F8148091F883
:1005C00003C0BCF1480F07D100F1080C4FF001083F
:1005D00008FA0CF8C2F81080401C0828CED35460EA
:1005E000BDE8F081F0B50A46002300240021002573
:1005F00000F00046B6F1004F02D11D4EF16901E056
:100600001B4E7168C0F3034583B200F44016B6F583
:10061000401F08D121F07061154E766826F0706693
:10062000134F7E6012E000F48016B6F5801F06D1ED
:10063000032606FA05F4A14341F0706106E0460D79
:10064000360103FA06F6B14341F0706122B1460D5E
:10065000360103FA06F6314300F00046B6F1004FCA
:1006600002D1034EF16101E0014E7160F0BD000066
:1006700000000140416170470161704708B50121E8
:10068000402000F095FC4FF4D440ADF8000003206A
:100690008DF8020010208DF8030069460B48FFF723
:1006A00016FF4FF400710948FFF7E6FF4FF40061B1
:1006B0000648FFF7E1FF4FF400510448FFF7DCFF65
:1006C0004FF480410148FFF7D7FF08BD00180140F3
:1006D00010B50446412C3AD108210846FFF709FE1F
:1006E0003D21112001F09EF98621172001F09AF991
:1006F0001F21262001F096F91E212D2001F092F9EC
:1007000000212C2001F08EF98D212A2001F08AF998
:100710003E212B2001F086F94FF47A7001F00AFA9D
:100720004FF47A7001F006FA4FF47A7001F002FA91
:1007300000F08EF94FF47A7001F0FCF94FF47A7002
:1007400001F0F8F94FF47A7001F0F4F901E0FF20BC
:1007500010BD0020FCE708B500214FF0006000F05C
:1007600063F84FF4A06000F055F81C208DF80000ED
:1007700001208DF801008DF802008DF80300684615
:1007800000F010F826208DF8000002208DF80100FE
:1007900001208DF802008DF80300684600F002F891
:1007A00008BD000070B5002100230F22C47804B3F7
:1007B000154C246804F4E064C4F5E064210AC1F136
:1007C0000403CA40447804FA03F1847814402143B6
:1007D00009010E4C0678A155047804F01F05012488
:1007E000AC4005786D11AD0005F1E025C5F800417C
:1007F00009E0047804F01F050124AC40044D06789C
:10080000761145F8264070BD0CED00E000E400E0F4
:1008100080E100E002490143024A11607047000094
:100820000000FA050CED00E0024A0A400243024BC8
:100830001A60704780FFFF1F08ED00E010B5044606
:10084000012C06D0022C0AD0032C0ED0042C18D177
:1008500011E04FF400710C48FFF70EFF12E04FF467
:1008600000610948FFF708FF0CE04FF4005106480B
:10087000FFF702FF06E04FF480410348FFF7FCFE5C
:1008800000E000BF00BF10BD0018014010B50446D5
:100890004FF400711A48FFF7EFFE4FF4006118485B
:1008A000FFF7EAFE4FF400511548FFF7E5FE4FF45D
:1008B00080411348FFF7E0FE012C06D0022C0AD03D
:1008C000032C0ED0042C18D111E04FF400710C4809
:1008D000FFF7D0FE12E04FF400610948FFF7CAFEAF
:1008E0000CE04FF400510648FFF7C4FE06E04FF459
:1008F00080410348FFF7BEFE00E000BF00BF10BD0F
:100900000018014010B5002449480088401E49499C
:10091000085C442801D1012000E00020454908700E
:1009200000286FD008464078012806D002282ED033
:1009300003284AD0042877D165E00120FFF77EFF25
:100940000220FFF77BFF03E0641C032C00D310BDE3
:10095000394800F0E3FC0028F6D148203649891ECA
:100960000870012048704420087209213248801E16
:1009700000F052FC3048801E0079AC2803D10120E1
:10098000FFF784FF02E00220FFF780FF4DE003E065
:10099000641C032C00D3DAE7264988782649491CD1
:1009A00000F06EFC0028F3D148202349891E08700E
:1009B000022048701F48807888704420C874142131
:1009C0001D48801E00F028FC2FE0002405E0194996
:1009D000E01C085C19490855641C102CF7D300244E
:1009E00003E0641C032C00D3B1E712498878134953
:1009F00001F032F80028F4D10D4801880D4800F0CC
:100A00000BFC12E012E0002405E00A49A01C085C7F
:100A10000B490855641C062CF7D305480188054886
:100A200000F0FAFB01E0FFE700BF00BF00BF8EE768
:100A30003200002097000020760000208700002070
:100A40002C00002010B503211420FFF752FC10BD2C
:100A500010B5142000F0F6FB044604F0030018B9AA
:100A60000321142000F0D0FC10BDF0B587B005467E
:100A7000002708210846FFF73CFC00210D2000F06C
:100A8000D1FF80210E20FFF734FC93208DF8040065
:100A900020208DF8050006A801AB022201A90090D4
:100AA0000C2000F059F8064686B9002407E001A89A
:100AB000005D285501A8005D4740601CC4B2042CAD
:100AC000F5DB01A8005DB84200D0FE2680210E2093
:100AD00000F09AFC304607B0F0BD00002DE9F0436D
:100AE00087B006460F46904699468DF804608DF80B
:100AF0000570002406E018F8041001AAA01C115487
:100B0000601CC4B2062CF6DB002407E019F80410C0
:100B100001AA04F108001154601CC4B2062CF5DBD4
:100B200006A801AB0C2201A900900E2000F014F8D9
:100B30000546082000F086FB064908702DB90820FC
:100B400000F080FB00F0080000B9FE25284607B041
:100B5000BDE8F0831B0000202DE9FF4F83B006465F
:100B600088469146DDF840A0FE20029000200190CA
:100B7000834600900C2E06D00E2E09D11220019033
:100B80004FF0100B05E0772001904FF0300B00E0A4
:100B900000BF00BF019840F08001022000F042FF3A
:100BA00080210420FFF7A5FB0021012000F03AFF7F
:100BB00080210A2000F028FC042000F043FB0446BA
:100BC000002C04DD4B480068401C4A4908600A209C
:100BD00000F038FB0446002C04DD46480068401C49
:100BE00044490860002505E018F80510092000F0C8
:100BF00019FF6D1C4D45F7D3042000F023FB04467C
:100C0000002C04DD3B480068401C3A49086031462E
:100C1000012000F007FF0C2E03D180210D2000F0F1
:100C2000F3FB4FF4FA6500BF042000F00BFB044611
:100C30006D1E30480068401C2E49086035B104F034
:100C4000010018B904EA0B000028EDD080210D2026
:100C5000FFF74FFB002C04DD26480068401C2549A7
:100C60000860062000F0EEFA00909DB32148C0F81D
:100C700000B0009800F01B0068BB002002900198B3
:100C8000204000F0010008B1FF2002900C2E24D17A
:100C90000A2000F0D7FA04460C2000F0D3FA00F046
:100CA00007072FB1601E07EBC000CAF8000002E082
:100CB000E000CAF8000004B90124122C00DD12245F
:100CC000002505E0092000F0BDFA069948556D1C85
:100CD000A542F7D301E0FE20029080210C2000F015
:100CE00093FB0021012000F09DFE029807B0BDE8B3
:100CF000F08F00002000002010B588B050208DF843
:100D0000080000208DF809000DF10A02022102A856
:100D1000FFF7B9FA07A802AB042202A900900C2041
:100D2000FFF71AFF0446002008B010BDF0B587B0E9
:100D300005460E4630208DF804008DF805500DF163
:100D40000602022101A8FFF79EFA06A801AB0422C1
:100D500001A900900C20FFF7FFFE074667B906982F
:100D6000902809D1002404E001A8005D3055601CE2
:100D7000C4B2102CF8DB00E0FE27384607B0F0BD07
:100D800070B588B005460C4608210846FFF7B1FA51
:100D900007210D2000F046FE0321142000F034FB53
:100DA0008DF8085007A802AB012202A900900C2080
:100DB000FFF7D2FE06464EB90798102806D19DF8D7
:100DC000080020709DF80900607000E0FE263046A3
:100DD00008B070BD10B500240F21012000F022FEE4
:100DE0000021012000F01EFE4FF47A7000F0A2FEF8
:100DF0003D21112000F016FE1E212D2000F012FED4
:100E000000212C2000F00EFEAD212A2000F00AFE69
:100E10003E212B2000F006FE4021152000F002FEAE
:100E2000002010BD70B588B0054693208DF80800ED
:100E300070208DF8090000208DF80E0000240BE0D2
:100E4000295D02AAA01C11549DF80E00295D48409E
:100E50008DF80E00601CC4B2042CF1DB0DF10F0202
:100E6000072102A8FFF70FFA08210846FFF741FA09
:100E700007A802AB092202A900900C20FFF76CFE24
:100E8000064626B90798182801D1002600E0FE265C
:100E9000304608B070BDF0B587B006460F46A020BA
:100EA0008DF804008DF805600DF10602022101A8FD
:100EB000FFF7E9F906A801AB042201A900900C2074
:100EC000FFF74AFE054645B90698042805D19DF866
:100ED000040000F00F000A2800D0FE250DBB0024FE
:100EE00004E0385D01A90855601CC4B2102CF8DB81
:100EF00005AA102101A8FFF7C6F906A801AB122226
:100F000001A900900C20FFF727FE054645B9069879
:100F1000042805D19DF8040000F00F000A2800D035
:100F2000FE25284607B0F0BD10B5FFF753FFFFF7C9
:100F300089FD41F2883000F0FDFD41F2883000F07B
:100F4000F9FD41F2883000F0F5FD41F2883000F003
:100F5000F1FD41F2883000F0EDFD41F2883000F003
:100F6000E9FDFFF775FD4120FFF7B2FB10BD000062
:100F700029B1064A52690243044B5A6104E0034A0C
:100F800052698243014B5A617047000000100240D1
:100F900029B1064AD2690243044BDA6104E0034AEC
:100FA000D2698243014BDA617047000000100240B1
:100FB00029B1064A92690243044B9A6104E0034A4C
:100FC00092698243014B9A61704700000010024011
:100FD0002DE9F041002100220025002300260024F5
:100FE00000278C46DFF86081D8F8048008F00C01F7
:100FF00021B1042907D0082959D109E0DFF84C8133
:10100000C0F8008058E0DFF84881C0F8008053E065
:10101000DFF83481D8F8048008F47012DFF82881F2
:10102000D8F8048008F48035920C0D2A01D0921C67
:1010300000E0062235B9DFF81C8102FB08F8C0F891
:10104000008033E0DFF80081D8F82C8008F4803687
:10105000DFF8F480D8F82C8008F00F0808F10104BC
:1010600046B9DFF8EC80B8FBF4F808FB02F8C0F8EA
:1010700000801BE0DFF8D080D8F82C80C8F303187C
:1010800008F10107DFF8C080D8F82C80C8F30328E6
:1010900008F1020CDFF8B880B8FBF7F808FB0CF891
:1010A000B8FBF4F808FB02F8C0F8008004E0DFF8B1
:1010B0009C80C0F8008000BF00BFDFF88C80D8F8AB
:1010C000048008F0F0010909DFF88C8018F801307D
:1010D000D0F8008028FA03F8C0F80480DFF86880B0
:1010E000D8F8048008F4E061090ADFF86C8018F889
:1010F0000130D0F8048028FA03F8C0F80880DFF83F
:101100004880D8F8048008F46051C90ADFF84880A4
:1011100018F80130D0F8048028FA03F8C0F80C80E1
:10112000DFF82480D8F8048008F44041890BDFF808
:101130002C8018F80130D0F80C80B8FBF3F8C0F818
:101140001080BDE8F08100000010024000127A001B
:1011500040787D0100093D00500000206000002023
:1011600000B58BB001210846FFF702FF2648FFF7C4
:10117000DBF8264800902648006801901020029075
:101180004FF47A7003900020049080200590002096
:101190000690079008904FF40050099000200A90A4
:1011A00069461948FFF773F9012202211648FFF733
:1011B00065F901210846FFF7DBFE13481438FFF7F5
:1011C000B3F81248009013480190002002904FF4A9
:1011D00080600390002004908020059000200690FD
:1011E000079008904FF44050099000200A906946FB
:1011F00005481438FFF74BF9012103481438FFF76D
:1012000086F80BB000BD000080000240044400409E
:10121000040000209700002010B50246002000BF07
:101220000BE0135C064C238000BF054B1B1F1B8883
:1012300003F04003002BF8D0401C8842F1D310BDCE
:101240000444004070B5044600264FF400510B489A
:10125000FFF710FA7E2000EA440040F0800528469F
:1012600000F0A8F8FF2000F0A5F806464FF4005162
:101270000248FFF701FA304670BD0000001401403B
:10128000F0B591B004460D461BA103C9CDE90F018D
:101290001BA103C9CDE90D011BA30FCB09AE0FC6DE
:1012A0002046E11704EB91718910032202EB8101C2
:1012B000CFB201A95220FFF763FD06460DF10600EB
:1012C000FFF7D3FB0646DDF8060000906846FFF7FF
:1012D000A9FD06466B46104A39466020FFF7FEFB23
:1012E000064629462046FFF721FD0646FFF704FD86
:1012F000304611B0F0BD0000FFFFFFFFFFFF000010
:101300001984071576140000198407157614FF0751
:1013100080691984071576142C00002010B5044646
:1013200021465220FFF72CFD05490870A01CFFF74D
:101330009CFB03490870FFF7DFFC0148007810BDF3
:101340001D00002021B1028842F04002028004E02A
:1013500002884FF6BF731A40028070470246002091
:1013600013890B400BB1012000E0002070470146BB
:10137000888970478181704710B50022028802F485
:1013800041520B884C8823438C882343CC882343C9
:101390000C8923434C8923438C892343CC892343E1
:1013A0001A430280838B4FF2FF74234083830B8A9E
:1013B000038210BD70B50546002405E0601CC4B270
:1013C000C82C01DD002070BD02210E48FFF7C6FFCA
:1013D0000028F3D029460B48FFF7CCFF002400BFBC
:1013E00001210848FFF7BAFF0028F9D0601CC4B2F9
:1013F000C82C01DD0020E6E70248FFF7B8FFC0B2C5
:10140000E1E70000003C004070B505460C460026B0
:101410002846FFF717FF064646EA0401284600F073
:1014200001FB70BD10B500F001F810BD0CB5002037
:10143000019000903F48006840F480303D490860CA
:1014400000BF3C48006800F4003000900198401C48
:101450000190009818B90198B0F5A06FF1D1354806
:10146000006800F4003010B10120009001E000207D
:101470000090009801285CD12F48006840F01000CF
:101480002D4908600846006820F0030008600846FF
:10149000006840F00200086026484068254948601E
:1014A0000846406848600846406840F480604860EC
:1014B0000846C06A214908401E49C8620846C06AF9
:1014C0001F4908431B49C8620846006840F0806015
:1014D000086000BF1748006800F000600028F9D0DD
:1014E0001448406820F47C1012494860084640685F
:1014F00040F4E81048600846006840F080700860DA
:1015000000BF0C48006800F000700028F9D00948BE
:10151000406820F00300074948600846406840F0F2
:101520000200486000BF0348406800F00C00082833
:10153000F9D10CBD001002400020024000F0FEFF77
:1015400044060100042808D14FF0E021096941F068
:1015500004014FF0E022116107E04FF0E02109693A
:1015600021F004014FF0E0221161704710B51648D8
:10157000006840F0010014490860084640681349BB
:1015800008401149486008460068114908400E4962
:1015900008600846006820F480200860084640681B
:1015A00020F4FE0048600846006820F0A050086063
:1015B0004FF47F0088600020C862FFF733FF4FF0D0
:1015C00000600449086010BD001002400000FFF0F8
:1015D000FFFFF6FE08ED00E010B50121880700F0DE
:1015E00032F8012823D10020114908701148006801
:1015F000401C104908600846007800F0010028B13E
:101600004FF400710C48FFF735F804E04FF4007117
:101610000948FFF731F80948007820B107480078F9
:10162000401E064908700121880700F009F810BD26
:10163000380000203400002000180140160000206F
:10164000CA430282704730B50246002000230024BE
:10165000158A05EA0103958905EA010413B10CB165
:10166000012000E0002030BD10B5002440F22441EC
:10167000184800F0BDF8E8B116480088C4B2154813
:10168000001D0088C4B201201349087000211348CE
:10169000FEF73DFE1148FEF7EDFEC0F580601049F3
:1016A00008804FF480610D48FEF70FFF01210B48C1
:1016B000FEF72DFE40F22661064800F099F838B199
:1016C00040F22661034800F06FF8002005490870D9
:1016D00010BD000000440040240000206C000240C7
:1016E000320000200800002000B585B00121480428
:1016F000FFF74EFC01212120FFF75AFC01210820B1
:10170000FEF770FF2020ADF8100018208DF81300B0
:1017100003208DF8120004A92148FEF7D8FE4020CE
:10172000ADF8100004208DF8130003208DF812008E
:1017300004A91B48FEF7CBFE4FF4E13000904FF4B4
:101740008050ADF804000020ADF806004FF4806032
:10175000ADF808000020ADF80C000C20ADF80A0030
:101760006946104800F094F8002240F225510D48D7
:1017700000F068F8012240F224410A4800F062F8C3
:1017800001224021074800F02AF80121054800F015
:101790001AF840F22661034800F006F805B000BDD3
:1017A000001401400044004010B50022002340F620
:1017B0006A14A14200D100BF0A1201249440A3B2CE
:1017C000DC43048010BD21B1828942F40052828141
:1017D00004E082894DF6FF731A40828170471AB186
:1017E000838A0B43838202E0838A8B438382704720
:1017F00070B50246002400230025002040F66A163A
:10180000B14200D100BFC1F3421501F01F03012610
:1018100006FA03F3012D02D19689334006E0022D2A
:1018200002D1168A334001E0968A33400C12012619
:1018300006FA04F41688344013B10CB1012000E01C
:10184000002070BDF0B503460024002600250020CE
:1018500040F66A17B94200D100BF1846C1F34214DE
:1018600001F01F06012707FA06F5012C01D10C3003
:1018700004E0022C01D1103000E014301AB10768E6
:101880002F43076002E00768AF430760F0BD000028
:101890002DE9F04786B005460E460024A24600BF5B
:1018A000A1460027B08900B100BF2F462C8A4CF614
:1018B000FF700440F08804432C82AC894EF6F3108C
:1018C0000440B08831890843718908430443AC81DE
:1018D000AC8A4FF6FF400440B0890443AC8201A8B3
:1018E000FFF776FB1F48874202D1DDF810A001E028
:1018F000DDF80CA0A88900F4004040B10AEBCA0052
:1019000000EB0A1031684900B0FBF1F807E00AEB80
:10191000CA0000EB0A1031688900B0FBF1F86420BE
:10192000B8FBF0F004012009642101FB1089A889AB
:1019300000F4004040B1322000EBC900B0FBF1F0F0
:1019400000F00700044308E0322000EB0910642196
:10195000B0FBF1F000F00F0004432C8106B0BDE8AD
:10196000F08700000038014000B587B00121202039
:10197000FFF71EFB4FF40050ADF8040010208DF867
:10198000070003208DF8060001A92248FEF79FFDFD
:101990000121C803FFF7FCFA01211120FFF708FB22
:1019A00001211D48FEF71EFE4FF4E050ADF8040083
:1019B00003208DF8060018208DF8070001A91748AC
:1019C000FEF785FD0020ADF808004FF48270ADF8F9
:1019D0000A000020ADF80C00ADF80E00ADF81000C4
:1019E0004FF40070ADF812003020ADF81400002064
:1019F000ADF816000720ADF8180002A90848FFF757
:101A0000BBFC01210648FFF79DFCFF20FFF7D2FC3D
:101A100007B000BD0014014000112000001001407B
:101A2000003C004070B504460D464FF40051094893
:101A3000FEF720FE7E2000EA44063046FFF7BAFC9F
:101A40002846FFF7B7FC4FF400510248FEF714FE9A
:101A500070BD000000140140F0B591B004460D4681
:101A60001AA103C9CDE90F011AA103C9CDE90D01DE
:101A70001AA30FCB09AE0FC62046E11704EB9171F4
:101A80008910032202EB8101CFB201A95220FFF796
:101A900077F906460DF10600FEF7E7FF0646DDF88A
:101AA000060000906846FFF7BDF906466B460F4AF0
:101AB00039466020FFF712F8064629462046FFF710
:101AC000EAF9FFF719F9304611B0F0BDFFFFFFFF4B
:101AD000FFFF00001984071576140000198407150C
:101AE0007614FF0780691984071576142C000020EE
:101AF00010B56FF00400FFF725FD0A4800680A4999
:101B0000B0FBF1F0094908700846007800EB40018D
:101B1000C1EBC0104FF6FF7101EAC0000449088014
:101B200010BD00003C00002000127A0000000020E0
:101B300002000020002100E0491C8142FCD37047D4
:101B4000FFF7D6FFFEF79AFDFEF705FEFFF7CCFD87
:101B5000FFF706FBFFF708FFFFF7E6F908E0054887
:101B60000078012804D1FEF7CDFE0020014908705D
:101B7000F5E7000024000020981B0008000000206A
:101B8000640000006C010008FC1B000864000020D9
:101B9000940A000088010008000000000000000016
:101BA0000000000000000000000000000000000035
:101BB0000000000000000000000000000000000025
:101BC00000000000FFFFFFFFFFFF0000000000001B
:101BD0000100000000A24A04000000000000000014
:101BE00001020304060708090000000001020304C3
:0C1BF000010203040607080902040608AD
:0400000508000131BD
:00000001FF
